{
  "transactions": [
    {
      "hash": "0xd44c6ea2717d08a82a1059851c43f9f72088e3483a13603d09cc42282f65cff1",
      "transactionType": "CREATE",
      "contractName": "DealOrNotBridge",
      "contractAddress": "0xcf3b0d1575b30b53d8db4ede30ebb47d51a2650a",
      "function": null,
      "arguments": [
        "0xD3b06cEbF099CE7DA4AcCf578aaebFDBd6e88a93",
        "0xd9D4A974021055c46fD834049e36c21D7EE48137"
      ],
      "transaction": {
        "from": "0x75a32d24fd4edb2c5895ace905da5ee1fbd584a1",
        "gas": "0xa33c8",
        "value": "0x0",
        "input": "0x60a0346100b957601f61085d38819003918201601f19168301916001600160401b038311848410176100bd5780849260409485528339810103126100b957610052602061004b836100d1565b92016100d1565b906001600160a01b0390818116156100a15760805260018060a01b03199116815f5416175f553390600154161760015560405161077790816100e6823960805181818161016901526102450152f35b6040516335fdcccd60e21b81525f6004820152602490fd5b5f80fd5b634e487b7160e01b5f52604160045260245ffd5b51906001600160a01b03821682036100b95756fe6080604081815260049182361015610015575f80fd5b5f925f3560e01c91826301ffc9a714610638575081633d5ed546146105ae578163405ebd4d1461053057816385572ffb146102045781638da5cb5b146101db578163992a0fb414610198578163b0f479a114610154578163cc2d514a146100af575063d3f3300914610085575f80fd5b346100ab57816003193601126100ab57905490516001600160a01b039091168152602090f35b5080fd5b9050346101505781600319360112610150576100c961068a565b6024356001600160a01b03818116939184900361014c5760015416330361013e575067ffffffffffffffff168084526002602090815283852080546001600160a01b031916841790559251918252917f034ff598138e1723577dacb2e2a26584c059fdcca02081046e3851212350270d91a280f35b83516330cd747160e01b8152fd5b5f80fd5b8280fd5b5050346100ab57816003193601126100ab57517f00000000000000000000000000000000000000000000000000000000000000006001600160a01b03168152602090f35b5050346100ab5760203660031901126100ab5760209167ffffffffffffffff6101bf61068a565b168152600283528190205490516001600160a01b039091168152f35b5050346100ab57816003193601126100ab5760015490516001600160a01b039091168152602090f35b90503461014c5760209060031992828436011261014c57813567ffffffffffffffff9485821161014c5760a090823603011261014c576001600160a01b03947f00000000000000000000000000000000000000000000000000000000000000008616330361051a5782519360a085018581108382111761050757845282810135855260248084013593838516850361014c57878701948552604481013584811161014c576102b7908436918401016106d7565b868801908152606482013585811161014c576102d8908536918501016106d7565b916060890192835260848101359086821161014c57013660238201121561014c5784810135908682116104f5578851916103178c8260051b01846106a1565b808352858c84019160061b8301019136831161014c578601905b8282106104a057505050608089015251888180518101031261014c578961035a8a87930161072d565b1695511694855f5260028952808a885f2054160361048557505196858880518101031261014c57610391868a928a0151990161072d565b16975f541691823b1561014c575f8960448a838a519788948593639b1696fd60e01b855288850152888401525af19384610459575b50505050155f14610416579151905167ffffffffffffffff909216825260208201527fe1c7594f283db33ffad1a9521746a51c8fba48d623216f9832ff2b22e73a99599080604081015b0390a380f35b9151905167ffffffffffffffff909216825260208201527f2332cbef5935d4082aec083551a1a6c2052786faa7d2a6e627c7e03d245a836e908060408101610410565b90919280949a501161047457505082525f955f8080806103c6565b604190634e487b7160e01b5f52525ffd5b8360449184888a5193633f12265560e21b8552840152820152fd5b8a8236031261014c578a51908b82018281108b8211176104e357908f918d528335918216820361014c57828f928e94528285013583820152815201910190610331565b8860418b634e487b7160e01b5f52525ffd5b84604187634e487b7160e01b5f52525ffd5b604182634e487b7160e01b5f525260245ffd5b82516335fdcccd60e21b81523381860152602490fd5b90503461014c57602036600319011261014c5780356001600160a01b03818116939184900361014c576001541633036105a15782806bffffffffffffffffffffffff60a01b5f5416175f557f94b488ee7f141e60e1c61ff77cc1188dcf8c457486d348a6802e58d765d984475f80a2005b516330cd747160e01b8152fd5b823461014c57602036600319011261014c576105c861068a565b6001546001600160a01b0316330361062a5767ffffffffffffffff1690815f5260026020525f206bffffffffffffffffffffffff60a01b81541690557f5ddbbf9c2d4045692c43ff1e8e70e596319440d7cdffaa36096d4b0fdada22a55f80a2005b50516330cd747160e01b8152fd5b903461014c57602036600319011261014c57359063ffffffff60e01b821680920361014c576020916385572ffb60e01b8114908115610679575b5015158152f35b6301ffc9a760e01b14905083610672565b6004359067ffffffffffffffff8216820361014c57565b90601f8019910116810190811067ffffffffffffffff8211176106c357604052565b634e487b7160e01b5f52604160045260245ffd5b81601f8201121561014c5780359067ffffffffffffffff82116106c3576040519261070c601f8401601f1916602001856106a1565b8284526020838301011161014c57815f926020809301838601378301015290565b51906001600160a01b038216820361014c5756fea264697066735822122028e3f20d62ed9c6656b85888f270095f9dae75efa55bf8eb599060fbf0271d5764736f6c63430008180033000000000000000000000000d3b06cebf099ce7da4accf578aaebfdbd6e88a93000000000000000000000000d9d4a974021055c46fd834049e36c21d7ee48137",
        "nonce": "0x9c",
        "chainId": "0x14a34"
      },
      "additionalContracts": [],
      "isFixedGasLimit": false
    },
    {
      "hash": "0xd476c9e11847a90eda420d299523c4ebce95d07cab811bff1a192722cf271a8d",
      "transactionType": "CALL",
      "contractName": "DealOrNotBridge",
      "contractAddress": "0xcf3b0d1575b30b53d8db4ede30ebb47d51a2650a",
      "function": "setGateway(uint64,address)",
      "arguments": [
        "16015286601757825753",
        "0xaB2995091CCE608d1F3f18f36F8e6615aB2fc124"
      ],
      "transaction": {
        "from": "0x75a32d24fd4edb2c5895ace905da5ee1fbd584a1",
        "to": "0xcf3b0d1575b30b53d8db4ede30ebb47d51a2650a",
        "gas": "0x1020f",
        "value": "0x0",
        "input": "0xcc2d514a000000000000000000000000000000000000000000000000de41ba4fc9d91ad9000000000000000000000000ab2995091cce608d1f3f18f36f8e6615ab2fc124",
        "nonce": "0x9d",
        "chainId": "0x14a34"
      },
      "additionalContracts": [],
      "isFixedGasLimit": false
    }
  ],
  "receipts": [
    {
      "status": "0x1",
      "cumulativeGasUsed": "0x455d05",
      "logs": [],
      "logsBloom": "0x00000000000000000000000000000000000000000000000000000000000000000000000000000000000000000000000000000000000000000000000000000000000000000000000000000000000000000000000000000000000000000000000000000000000000000000000000000000000000000000000000000000000000000000000000000000000000000000000000000000000000000000000000000000000000000000000000000000000000000000000000000000000000000000000000000000000000000000000000000000000000000000000000000000000000000000000000000000000000000000000000000000000000000000000000000000",
      "type": "0x2",
      "transactionHash": "0xd44c6ea2717d08a82a1059851c43f9f72088e3483a13603d09cc42282f65cff1",
      "transactionIndex": "0xb",
      "blockHash": "0x0000000000000000000000000000000000000000000000000000000000000000",
      "blockNumber": "0x24984c8",
      "gasUsed": "0x7d910",
      "effectiveGasPrice": "0x5b8d80",
      "blobGasUsed": "0x31464",
      "from": "0x75a32d24fd4edb2c5895ace905da5ee1fbd584a1",
      "to": null,
      "contractAddress": "0xcf3b0d1575b30b53d8db4ede30ebb47d51a2650a",
      "daFootprintGasScalar": "0x8b",
      "l1BaseFeeScalar": "0x44d",
      "l1BlobBaseFee": "0x1",
      "l1BlobBaseFeeScalar": "0xa118b",
      "l1Fee": "0x51",
      "l1GasPrice": "0x9",
      "l1GasUsed": "0x5ac3"
    },
    {
      "status": "0x1",
      "cumulativeGasUsed": "0x4617da",
      "logs": [
        {
          "address": "0xcf3b0d1575b30b53d8db4ede30ebb47d51a2650a",
          "topics": [
            "0x034ff598138e1723577dacb2e2a26584c059fdcca02081046e3851212350270d",
            "0x000000000000000000000000000000000000000000000000de41ba4fc9d91ad9"
          ],
          "data": "0x000000000000000000000000ab2995091cce608d1f3f18f36f8e6615ab2fc124",
          "blockHash": "0x0000000000000000000000000000000000000000000000000000000000000000",
          "blockNumber": "0x24984c8",
          "blockTimestamp": "0x69a66870",
          "transactionHash": "0xd476c9e11847a90eda420d299523c4ebce95d07cab811bff1a192722cf271a8d",
          "transactionIndex": "0xc",
          "logIndex": "0x6",
          "removed": false
        }
      ],
      "logsBloom": "0x00000000000000000000000000000000000000000000000000000000000000000000000000004000000000000000000000000000000000000000002000000000000000000000000000000000000000000000800000000000000000000000000000000000000000000000000000010000000000000000000000000000000000000000000000000000000000002000000000000020000000000100000080000000000000000000000000000000000000000000000000000000000000000000000000000000000000000000000008000000000000000000000000000000000000000000000000000000000000000000000000000000000000000000000000000000",
      "type": "0x2",
      "transactionHash": "0xd476c9e11847a90eda420d299523c4ebce95d07cab811bff1a192722cf271a8d",
      "transactionIndex": "0xc",
      "blockHash": "0x0000000000000000000000000000000000000000000000000000000000000000",
      "blockNumber": "0x24984c8",
      "gasUsed": "0xbad5",
      "effectiveGasPrice": "0x5b8d80",
      "blobGasUsed": "0x364c",
      "from": "0x75a32d24fd4edb2c5895ace905da5ee1fbd584a1",
      "to": "0xcf3b0d1575b30b53d8db4ede30ebb47d51a2650a",
      "contractAddress": null,
      "daFootprintGasScalar": "0x8b",
      "l1BaseFeeScalar": "0x44d",
      "l1BlobBaseFee": "0x1",
      "l1BlobBaseFeeScalar": "0xa118b",
      "l1Fee": "0x51",
      "l1GasPrice": "0x9",
      "l1GasUsed": "0x640"
    }
  ],
  "libraries": [],
  "pending": [],
  "returns": {},
  "timestamp": 1772513390,
  "chain": 84532,
  "commit": "e5e4721"
}